:100000000C942A000C943C000C943C000C943C0092
:100010000C943C000C943C000C943C000C943C0070
:100020000C943C000C943C000C943C000C943C0060
:100030000C943C000C940A010C943C000C943C0081
:100040000C943C000C943C000C943C000C943C0040
:100050000C943C0011241FBECFE5D8E0DEBFCDBF1D
:1000600020E0A0E6B0E001C01D92A636B207E1F79D
:100070000E945E000C9452010C9400008FE08CBF33
:1000800083B7816783BF089583B783BF08950E94B4
:100090003E0008B601FEFDCF81E088BB089510BC8C
:1000A00083E389B98AB188698AB980B5866880BDD9
:1000B000789408955F9BFECF8CB108958FEF87BB36
:1000C00018BA8ABB1BBA84BB85BB0E944F00FFCF06
:1000D000809162008E3409F04AC0809163008535BA
:1000E00009F097C0809164008D3409F06BC0809155
:1000F0006500803309F066C081E08BBB0895809174
:100100006500813309F063C082E08BBB0895809164
:100110006500823309F060C084E08BBB0895809154
:100120006500833309F05DC088E08BBB0895809142
:100130006500843309F05AC080E18BBB089580913B
:100140006500853309F057C080E28BBB089580912C
:100150006500863309F054C080E48BBB089580911C
:100160006500873309F055C080E88BBB089583355F
:10017000C1F480916300803509F04BC08091640028
:10018000853509F042C0809165008035F1F50E9407
:100190003E000895809165008F34D9F50E94440097
:1001A00008958435B1F5809163008F3491F5809185
:1001B0006400863571F580916500803351F50E94A9
:1001C00047000895809164008D3409F498CF8091A0
:1001D00064008D3409F49BCF809164008D3409F460
:1001E0009ECF809164008D3409F4A1CF809164008A
:1001F0008D3409F4A4CF809164008D3409F4A7CF25
:10020000809164008D3429F4AACF809164008E34EB
:1002100009F208951F920F920FB60F9211242F9397
:100220003F934F935F936F937F938F939F93AF937E
:10023000BF93CF93DF93EF93FF93C0916000D09172
:100240006100C330D1057CF40E945A00CE59DF4FC3
:100250008883809160009091610001969093610085
:10026000809360000CC0239751F40E945A00809341
:1002700065000E9468001092610010926000FF917A
:10028000EF91DF91CF91BF91AF919F918F917F912E
:100290006F915F914F913F912F910F900FBE0F90F3
:0802A0001F901895F894FFCFA0
:00000001FF
